:100000000C9462000C948A000C948A000C948A0070
:100010000C948A000C948A000C948A000C948A0038
:100020000C948A000C948A000C948A000C948A0028
:100030000C948A000C948A000C948A000C948A0018
:100040000C9493020C948A000C9461020C943B0271
:100050000C948A000C948A000C948A000C948A00F8
:100060000C948A000C948A000000000024002700F1
:100070002A0000000000250028002B0000000008D6
:10008000000201000003040700000000000000005F
:1000900000000000230026002900040404040404D6
:1000A0000404020202020202030303030303010227
:1000B00004081020408001020408102001020408F6
:1000C00010209C0411241FBECFEFD8E0DEBFCDBFAF
:1000D00011E0A0E0B1E0E8E6FAE002C005900D9280
:1000E000A631B107D9F721E0A6E1B1E001C01D9228
:1000F000AE3BB207E1F710E0C2E6D0E004C02197C2
:10010000FE010E942C05C136D107C9F70E942203C7
:100110000C9432050C940000AF92BF92CF92DF9204
:10012000EF92FF920F931F93CF93DF936C017B01AC
:100130008B01040F151FEB015E01AE18BF08C0173D
:10014000D10759F06991D601ED91FC910190F081B0
:10015000E02DC6010995892B79F7C501DF91CF9173
:100160001F910F91FF90EF90DF90CF90BF90AF90D5
:100170000895FC01538D448D252F30E0842F90E0AD
:10018000821B930B541710F0CF9608950197089592
:10019000FC01918D828D981761F0A28DAE0FBF2F5B
:1001A000B11D5D968C91928D9F5F9F73928F90E0B1
:1001B00008958FEF9FEF0895FC01918D828D981720
:1001C00031F0828DE80FF11D858D90E008958FEF5D
:1001D0009FEF0895FC01918D228D892F90E0805C26
:1001E0009F4F821B91098F73992708958FE191E0AA
:1001F0000E94EA0021E0892B09F420E0822F089573
:1002000080E090E0892B29F00E94F60081110C9487
:1002100000000895FC01A48DA80FB92FB11DA35AA9
:10022000BF4F2C91848D90E001968F739927848F16
:10023000A689B7892C93A089B1898C918370806439
:100240008C93938D848D981306C00288F389E02DDA
:1002500080818F7D80830895EF92FF920F931F938B
:10026000CF93DF93EC0181E0888F9B8D8C8D981369
:100270001AC0E889F989808185FF15C09FB7F89475
:10028000EE89FF896083E889F989808183708064C1
:1002900080839FBF81E090E0DF91CF911F910F910C
:1002A000FF90EF900895F62E0B8D10E00F5F1F4F1B
:1002B0000F731127E02E8C8D8E110CC00FB607FC2A
:1002C000FACFE889F989808185FFF5CFCE010E94B8
:1002D0000A01F1CFEB8DEC0FFD2FF11DE35AFF4F1B
:1002E000F0829FB7F8940B8FEA89FB898081806246
:1002F000CFCFCF93DF93EC01888D8823B9F0AA8903
:10030000BB89E889F9898C9185FD03C0808186FDD0
:100310000DC00FB607FCF7CF8C9185FFF2CF80811F
:1003200085FFEDCFCE010E940A01E9CFDF91CF9189
:10033000089590E0FC01E458FF4F2491FC01E25540
:10034000FF4F3491FC01E656FF4FE491EE23C9F0D4
:10035000222339F0233001F1A8F4213019F12230A1
:1003600029F1F0E0EE0FFF1FEE58FF4FA591B49179
:100370008FB7F894EC91611126C030953E233C93E1
:100380008FBF08952730A9F02830C9F0243049F7ED
:10039000809180008F7D03C0809180008F77809353
:1003A0008000DFCF84B58F7784BDDBCF84B58F7DB0
:1003B000FBCF8091B0008F778093B000D2CF809137
:1003C000B0008F7DF9CF3E2BDACFCF93DF9390E053
:1003D000FC01E255FF4F249186569F4FFC0184910A
:1003E0008823D1F090E0880F991FFC01E859FF4F56
:1003F000A591B491FC01EE58FF4FC591D4916111C4
:100400000EC09FB7F8948C91E22FE0958E238C93C9
:100410002881E223E8839FBFDF91CF9108958FB7B2
:10042000F894EC91E22BEC938FBFF6CF3FB7F894A2
:1004300080911B0190911C01A0911D01B0911E01A2
:1004400026B5A89B05C02F3F19F00196A11DB11D2F
:100450003FBFBA2FA92F982F8827BC01CD01620F6B
:10046000711D811D911D42E0660F771F881F991F26
:100470004A95D1F708951F920F920FB60F9211244B
:100480002F933F934F935F936F937F938F939F939C
:10049000AF93BF93EF93FF938FE191E00E940A0126
:1004A000FF91EF91BF91AF919F918F917F916F914C
:1004B0005F914F913F912F910F900FBE0F901F9022
:1004C00018951F920F920FB60F9211242F938F93AE
:1004D0009F93EF93FF93E0912F01F0913001808182
:1004E000E0913501F091360182FD1BC09081809131
:1004F00038018F5F8F7320913901821741F0E091AD
:100500003801F0E0E15EFE4F958F80933801FF9156
:10051000EF919F918F912F910F900FBE0F901F9091
:1005200018958081F4CF1F920F920FB60F9211246D
:100530002F933F938F939F93AF93BF938091170116
:1005400090911801A0911901B0911A0130911601F2
:1005500023E0230F2D3758F50196A11DB11D2093DF
:1005600016018093170190931801A0931901B0937D
:100570001A0180911B0190911C01A0911D01B09165
:100580001E010196A11DB11D80931B0190931C01BA
:10059000A0931D01B0931E01BF91AF919F918F91C8
:1005A0003F912F910F900FBE0F901F90189526E846
:1005B000230F0296A11DB11DD2CFCF92DF92EF92F1
:1005C000FF920F931F93E82FF92F05C001501109D7
:1005D0002109310961F1908196239417B9F305C07F
:1005E000015011092109310911F1908196239413C9
:1005F000F7CFC12CD12CE12CF12C0AC08FEFC81AF7
:10060000D80AE80AF80A0C151D052E053F0579F0F1
:1006100080818623841791F36C2D7D2D8E2D9F2D47
:100620001F910F91FF90EF90DF90CF90089560E0C1
:1006300070E080E090E01F910F91FF90EF90DF90CD
:10064000CF900895CF93DF93CDB7DEB7A5970FB6C0
:10065000F894DEBF0FBECDBF789484B5826084BDB0
:1006600084B5816084BD85B5826085BD85B58160B6
:1006700085BD80916E00816080936E001092810034
:1006800080918100826080938100809181008160EF
:1006900080938100809180008160809380008091B0
:1006A000B10084608093B1008091B000816080933C
:1006B000B00080917A00846080937A0080917A0003
:1006C000826080937A0080917A00816080937A00C2
:1006D00080917A00806880937A001092C10061E076
:1006E00082E00E94E50161E083E00E94E50161E0B3
:1006F00084E00E94E50161E085E00E94E50160E0A0
:1007000086E00E94E50161E082E00E94990160E0DC
:1007100083E00E949901E0912F01F091300182E085
:100720008083E0912F01F09130011082E0912B0144
:10073000F0912C011082E0912D01F0912E0180E1C9
:10074000808310923701E0913301F091340186E00B
:100750008083E0913101F09132018081806180835A
:10076000E0913101F0913201808188608083E091D5
:100770003101F0913201808180688083E091310104
:10078000F091320180818F7D80832AE0422E512CAE
:10079000612C712C30E0232E30E0332E61E084E0B8
:1007A0000E94990160E085E00E949901E4EBF0E08D
:1007B0006491E0EAF0E08491E82FF0E0EE0FFF1F93
:1007C000E057FF4F8591949100E412E42FE030E070
:1007D00040E00E94DD02611571058105910529F057
:1007E0006F5F7F4F8F4F9F4F9F70072E000C880BBE
:1007F000990B9B01AC012254310941095109A1E037
:10080000BFEF0E94F60428ED30E040E050E00E9487
:10081000C904DA01C90181509F4FAF4FBF4F8AA36E
:100820009BA3ACA3BDA39093BD018093BC010E9488
:1008300016024B015C0188ECC82ED12CE12CF12C66
:100840000E941602681979098A099B09683E73405B
:1008500081059105A8F391E0C91AD108E108F108D2
:10086000A8EE8A0EA3E09A1EA11CB11CC114D104EB
:10087000E104F10429F7EAA1FBA16F01FF0FEE08E3
:10088000FF08F7FE43C06DE28FE191E00E942C016A
:1008900022273327A9012C193D094E095F0919A206
:1008A000CE0181967C01CA01B901A30192010E9487
:1008B000FB04605DD7016E937D0121153105410573
:1008C000510589F7E114F10469F0F7010190002066
:1008D000E9F73197AF014E195F09B7018FE191E058
:1008E0000E948C0042E050E062E171E08FE191E013
:1008F0000E948C002114310409F450CF0E94F600AC
:10090000882309F44BCF0E94000048CFA70196012D
:1009100019A2FE01B1967F01CA01B901A30192019A
:100920000E94FB04605DD7016E937D0121153105A6
:100930004105510589F7C6CFEFE1F1E0138212823C
:1009400088EE93E0A0E0B0E084839583A683B7832C
:1009500084E091E09183808385EC90E095878487A3
:1009600084EC90E09787868780EC90E0918B808B79
:1009700081EC90E0938B828B82EC90E0958B848B62
:1009800086EC90E0978B868B118E128E138E148ED0
:100990000895052E97FB1EF400940E94E00457FD75
:1009A00007D00E94FB0407FC03D04EF40C94E00433
:1009B00050954095309521953F4F4F4F5F4F08958B
:1009C00090958095709561957F4F8F4F9F4F0895BB
:1009D0000E941D05A59F900DB49F900DA49F800DB2
:1009E000911D11240895B7FF0C94E8040E94E804B7
:1009F000821B930B0895A1E21A2EAA1BBB1BFD01BB
:100A00000DC0AA1FBB1FEE1FFF1FA217B307E407ED
:100A1000F50720F0A21BB30BE40BF50B661F771F45
:100A2000881F991F1A9469F7609570958095909525
:100A30009B01AC01BD01CF010895A29FB001B39FFE
:100A4000C001A39F700D811D1124911DB29F700DD7
:100A5000811D1124911D0895EE0FFF1F0590F49143
:080A6000E02D0994F894FFCF8A
:100A6800000000002C018C00B9007901EA00C800E0
:060A7800DC000D0A000085
:00000001FF
