:100000000C9462000C948A000C948A000C948A0070
:100010000C948A000C948A000C948A000C948A0038
:100020000C948A000C948A000C948A000C948A0028
:100030000C948A000C948A000C948A000C948A0018
:100040000C94B8040C948A000C9486040C946004FC
:100050000C948A000C948A000C948A000C948A00F8
:100060000C948A000C948A000000000024002700F1
:100070002A0000000000250028002B0000000000DE
:1000800023002600290004040404040404040202DA
:100090000202020203030303030301020408102007
:1000A0004080010204081020010204081020000012
:1000B0000008000201000003040700000000000027
:1000C0000000020511241FBECFEFD8E0DEBFCDBF78
:1000D00011E0A0E0B1E0EAECF3E102C005900D927E
:1000E000A436B107D9F722E0A4E6B1E001C01D9221
:1000F000A639B207E1F710E0C2E6D0E004C02197CC
:10010000FE010E94DD09C136D107C9F70E94A7058B
:100110000C94E3090C9400004F925F926F927F92CF
:100120008F929F92AF92BF92CF92DF92EF92FF9207
:100130000F931F9340918802509189024F5F5F4F48
:1001400060E0C12CD12C760188248A94982CA82CAC
:10015000B12C80E090E0DC01262F30E042175307FD
:100160008CF1220F331F220F331FF901E15FFD4F86
:100170004384548465847684481459046A047B0457
:1001800024F483849484A584B684F901E15FFD4F4F
:100190004384548465847684C414D504E604F70447
:1001A00024F4C384D484E584F684215F3D4FF901AF
:1001B0000385148525853685800F911FA21FB31FE7
:1001C0006F5FCACF88199909AA09BB09BC01CD0183
:1001D0006C197D098E099F092091760204C09595BE
:1001E0008795779567952A95D2F71F910F91FF9084
:1001F000EF90DF90CF90BF90AF909F908F907F90C7
:100200006F905F904F900895AF92BF92CF92DF9220
:10021000EF92FF920F931F93CF93DF936C017B01BB
:100220008B01040F151FEB015E01AE18BF08C0174C
:10023000D10759F06991D601ED91FC910190F081BF
:10024000E02DC6010995892B79F7C501DF91CF9182
:100250001F910F91FF90EF90DF90CF90BF90AF90E4
:100260000895FC01538D448D252F30E0842F90E0BC
:10027000821B930B541710F0CF96089501970895A1
:10028000FC01918D828D981761F0A28DAE0FBF2F6A
:10029000B11D5D968C91928D9F5F9F73928F90E0C0
:1002A00008958FEF9FEF0895FC01918D828D98172F
:1002B00031F0828DE80FF11D858D90E008958FEF6C
:1002C0009FEF0895FC01918D228D892F90E0805C35
:1002D0009F4F821B91098F739927089582E791E0C0
:1002E0000E94620121E0892B09F420E0822F089509
:1002F00080E090E0892B29F00E946E0181110C941E
:1003000000000895FC01A48DA80FB92FB11DA35AB8
:10031000BF4F2C91848D90E001968F739927848F25
:10032000A689B7892C93A089B1898C918370806448
:100330008C93938D848D981306C00288F389E02DE9
:1003400080818F7D80830895EF92FF920F931F939A
:10035000CF93DF93EC0181E0888F9B8D8C8D981378
:100360001AC0E889F989808185FF15C09FB7F89484
:10037000EE89FF896083E889F989808183708064D0
:1003800080839FBF81E090E0DF91CF911F910F911B
:10039000FF90EF900895F62E0B8D10E00F5F1F4F2A
:1003A0000F731127E02E8C8D8E110CC00FB607FC39
:1003B000FACFE889F989808185FFF5CFCE010E94C7
:1003C0008201F1CFEB8DEC0FFD2FF11DE35AFF4FB2
:1003D000F0829FB7F8940B8FEA89FB898081806255
:1003E000CFCFCF93DF93EC01888D8823B9F0AA8912
:1003F000BB89E889F9898C9185FD03C0808186FDE0
:100400000DC00FB607FCF7CF8C9185FFF2CF80812E
:1004100085FFEDCFCE010E948201E9CFDF91CF9120
:100420000895833081F028F4813099F08230A9F06A
:1004300008958730A9F08830C9F08430B1F48091F4
:1004400080008F7D03C0809180008F778093800033
:10045000089584B58F7784BD089584B58F7DFBCFD3
:100460008091B0008F778093B00008958091B000A4
:100470008F7DF9CFCF93DF93282F30E0F901E2553C
:10048000FF4F8491F901E656FF4FD491F901EA57E5
:10049000FF4FC491CC23A1F081110E941102EC2FD7
:1004A000F0E0EE0FFF1FE458FF4FA591B491EC91DF
:1004B000ED2381E090E009F480E0DF91CF91089591
:1004C00080E090E0FACF1F93CF93DF93282F30E0A6
:1004D000F901E255FF4F8491F901E656FF4FD4919F
:1004E000F901EA57FF4FC491CC23A9F0162F8111CF
:1004F0000E941102EC2FF0E0EE0FFF1FEE58FF4FAD
:10050000A591B4918FB7F894EC91111108C0D095D2
:10051000DE23DC938FBFDF91CF911F910895DE2BF7
:10052000F8CFCF93DF9390E0FC01E656FF4F249184
:100530008A579F4FFC0184918823D1F090E0880F67
:10054000991FFC01E859FF4FA591B491FC01EE58A9
:10055000FF4FC591D49161110EC09FB7F8948C9153
:10056000E22FE0958E238C932881E223E8839FBFBE
:10057000DF91CF9108958FB7F894EC91E22BEC9333
:100580008FBFF6CF3FB7F8948091690190916A01CF
:10059000A0916B01B0916C0126B5A89B05C02F3FBF
:1005A00019F00196A11DB11D3FBFBA2FA92F982F99
:1005B0008827BC01CD01620F711D811D911D42E094
:1005C000660F771F881F991F4A95D1F708958F925C
:1005D0009F92AF92BF92CF92DF92EF92FF924B0128
:1005E0005C010E94C2026B017C010E94C2026C1974
:1005F0007D098E099F09683E734081059105A8F326
:1006000021E0821A9108A108B10888EEC80E83E0A3
:10061000D81EE11CF11C81149104A104B10429F736
:10062000FF90EF90DF90CF90BF90AF909F908F9012
:1006300008952FB7F89460916501709166018091DB
:100640006701909168012FBF0895CF92DF92EF92DA
:10065000FF92CF93809110020E943A028111C6C08E
:100660000E94C202C0906C02D0906D02E0906E02B7
:10067000F0906F026C197D098E099F0960937002DA
:100680007093710280937202909373020E94C2026F
:1006900060936C0270936D0280936E0290936F0270
:1006A00010928202C0E0C12CD12C760180911102FF
:1006B00090E04796C817190609F0BCF461E08091F4
:1006C0000F020E94630260E080910F020E946302A9
:1006D000C83148F4809110020E943A02CC0CDD1C13
:1006E000EE1CFF1CC82ACF5FE1CF80E8E826C114CA
:1006F000D104E10491E0F90618F021E020938E0284
:1007000020919402222361F04FEF5FEF6FEF70E0D2
:10071000DB01CA018C199D09AE09BF096C017D017D
:1007200020916A0230916B024091880250918902B7
:100730004F5F5F4F24173507D9F510926B02109267
:100740006A02C114D104E104F104F1F020918202A3
:100750002F5F20938202E0916A02F0916B02EE0F0C
:10076000FF1FEE0FFF1FE15FFD4FC386D486E586B6
:10077000F68680917802882339F080917502823163
:10078000F0F48F5F809375020E94190360938F02CB
:100790007093900280939102909392021092930230
:1007A00080918202CF91FF90EF90DF90CF900895DB
:1007B0002F5F3F4F30936B0220936A02C2CF0E949B
:1007C0008C00609366027093670280936802909336
:1007D0006902109275021092780281E08093830280
:1007E000809182028F5F80938202CECF0E94190394
:1007F000C0908F02D0909002E0909102F09092020F
:100800006C197D098E099F09653671058105910571
:1008100018F081E08093930210928202C1CFFC0114
:1008200001900020E9F73197AF01481B590BBC013B
:1008300082E791E00C9404018F929F92AF92BF9255
:100840000F931F93CF93DF93CDB7DEB7A1970FB66A
:10085000F894DEBF0FBECDBF19A2423008F44AE0C3
:100860008E010F5D1F4F842E912CB12CA12CA50160
:1008700094010E94BB09E62FB901CA01EA30F4F4E1
:10088000E05DD801EE938D01232B242B252B79F7E6
:1008900090E080E0109719F0CD010E940F04A1961E
:1008A0000FB6F894DEBF0FBECDBFDF91CF911F9181
:1008B0000F91BF90AF909F908F900895E95CE1CF2A
:1008C0001F920F920FB60F9211242F933F934F93C5
:1008D0005F936F937F938F939F93AF93BF93EF93A8
:1008E000FF9382E791E00E948201FF91EF91BF9117
:1008F000AF919F918F917F916F915F914F913F91B8
:100900002F910F900FBE0F901F9018951F920F926E
:100910000FB60F9211242F938F939F93EF93FF9312
:10092000E0918201F09183018081E0918801F09152
:10093000890182FD1BC0908180918B018F5F8F7335
:1009400020918C01821741F0E0918B01F0E0EE588C
:10095000FE4F958F80938B01FF91EF919F918F9127
:100960002F910F900FBE0F901F9018958081F4CF9C
:100970001F920F920FB60F9211242F933F938F93D4
:100980009F93AF93BF938091650190916601A09171
:100990006701B09168013091640123E0230F2D3786
:1009A00058F50196A11DB11D209364018093650146
:1009B00090936601A0936701B093680180916901EB
:1009C00090916A01A0916B01B0916C010196A11DFB
:1009D000B11D8093690190936A01A0936B01B0935C
:1009E0006C01BF91AF919F918F913F912F910F908B
:1009F0000FBE0F901F90189526E8230F0296A11D99
:100A0000B11DD2CFE2E7F1E01382128288EE93E0CB
:100A1000A0E0B0E084839583A683B78384E091E06F
:100A20009183808385EC90E09587848784EC90E0C7
:100A30009787868780EC90E0918B808B81EC90E0AB
:100A4000938B828B82EC90E0958B848B86EC90E08C
:100A5000978B868B118E128E138E148EEFE0F2E040
:100A600080E090E0A0E8BFE383839483A583B6830E
:100A700087839087A187B2871092660210926702DF
:100A8000109268021092690210926B0210926A0230
:100A900010926C0210926D0210926E0210926F0210
:100AA00010927002109271021092720210927302F0
:100AB00081E0809374021092750284E08093760244
:100AC00080937702109278021092790210927A0243
:100AD00010927B0210927C0210927D0210927E0294
:100AE00010927F0210928002109281021092820274
:100AF000109283028CE89AE090938502809384029E
:100B0000109286021092870280E190E09093890211
:100B10008093880210928A0210928B0210928C02AB
:100B200010928D0210928E0210928F0210929002FB
:100B300010929102109292021092930210929402DB
:100B40001092950287E0818388E0808308957894ED
:100B500084B5826084BD84B5816084BD85B58260C2
:100B600085BD85B5816085BD80916E008160809373
:100B70006E001092810080918100826080938100DC
:100B800080918100816080938100809180008160EC
:100B9000809380008091B10084608093B100809147
:100BA000B00081608093B00080917A00846080936F
:100BB0007A0080917A00826080937A0080917A0036
:100BC000816080937A0080917A00806880937A00B7
:100BD0001092C100E0918201F091830182E0808354
:100BE000E0918201F09183011082E0917E01F09109
:100BF0007F011082E0918001F091810180E180838A
:100C000010928A01E0918601F091870186E080834D
:100C1000E0918401F0918501808180618083E09181
:100C20008401F0918501808188608083E091840156
:100C3000F0918501808180688083E0918401F0914A
:100C4000850180818F7D80836AE070E080E090E0A4
:100C50000E94E70261E080910F020E94910260E031
:100C6000809110020E94910281E08093110260E065
:100C700080910F020E9463020E94190360938F0209
:100C80007093900280939102909392020E941903B4
:100C9000603679408105910518F40E942503F6CF4E
:100CA00081E08093780210927502109286020E9471
:100CB000190320918402309185026B017C01C20EE0
:100CC000D31EE11CF11C0E942503C82F80918702CE
:100CD00081110BC00E941903C616D706E806F90653
:100CE00020F481E08093860202C0C23061F7109246
:100CF000830280918602882309F4C6C082E191E0D4
:100D00000E940F0487E491E00E940F040E942503D3
:100D10008823E1F361E08AE00E94910261E08CE0C7
:100D20000E94910261E08BE00E94910261E08AE002
:100D30000E94910261E08AE00E94630261E08CE01F
:100D40000E94630260E08BE00E94630260E273E055
:100D500080E090E00E94E70260E08CE00E94630285
:100D600060E08BE00E946302C0E0D0E011E00E94EE
:100D7000250381111093710180917101882309F479
:100D800057C00E941903AB01BC0180916D01909185
:100D90006E01A0916F01B09170018C509E4FAF4FCA
:100DA000BF4F84179507A607B70708F041C00E94F8
:100DB0008C0060938A0270938B0280938C029093D4
:100DC0008D02C0906602D0906702E0906802F090B9
:100DD00069026C197D098E099F090E94940820916F
:100DE00016023091170240911802509119020E9488
:100DF00049096B017C014B015C01AC019B010E9424
:100E0000B609882309F459C08AE491E00E940F04CE
:100E100087E491E00E940F04109271010E9419036F
:100E200060936D0170936E0180936F0190937001D8
:100E300082E791E00E9462011816190664F482E7C5
:100E400091E00E944001843731F4109378021092AF
:100E5000750210928302809183021092830288238C
:100E600041F086E591E00E940F0487E491E00E9442
:100E70000F04209709F47BCF0E946E01882309F4A8
:100E800076CF0E94000073CF8AE999E5AFECB3E416
:100E90008093120290931302A0931402B093150250
:100EA00085E498E0AEE1BBE38093160290931702CD
:100EB000A0931802B093190229CF26013701E894B4
:100EC00077F82FEF3FEF4FE75FE7C301B2010E94D2
:100ED000B60981110DC02FEF3FEF4FE75FE7C30168
:100EE000B2010E945E0818161CF48EE491E08ECFC9
:100EF0002FEF3FEF4FE75FE4C701B6010E944409BF
:100F000018161CF482E591E081CF2FEF3FEF4FE7F9
:100F10005FECC701B6010E945E0887FDF3CF20E0B9
:100F200030E0A901C701B6010E945E0887FF0BC02F
:100F30006DE282E791E00E94A40146015701B7FAF1
:100F4000B094B7F8B0942AE037ED43EA5BE3C5010B
:100F5000B4010E94F2074B015C010E9463086B011F
:100F60007C010E9492089B01AC01C501B4010E9462
:100F7000F1074B015C014AE0C701B6010E941C0465
:100F80006EE282E791E00E94A40120E030E040E2BE
:100F900051E4C501B4010E9449094B015C010E9462
:100FA00063086B01F12CE12C4AE0C701B6010E94F5
:100FB0001C04C701B6010E9492089B01AC01C50147
:100FC000B4010E94F10720E030E040E251E40E94C9
:100FD00049090E94630890E080E04AE00E941C04F6
:100FE00017CF5058BB27AA270E9409080C940A095A
:100FF0000E94FC0838F00E94030920F039F49F3F5A
:1010000019F426F40C94F9080EF4E095E7FB0C941F
:10101000F308E92F0E941B0958F3BA1762077307F8
:101020008407950720F079F4A6F50C943D090EF499
:10103000E0950B2EBA2FA02D0B01B90190010C01E8
:10104000CA01A0011124FF27591B99F0593F50F400
:10105000503E68F11A16F040A22F232F342F442758
:10106000585FF3CF469537952795A795F040539550
:10107000C9F77EF41F16BA0B620B730B840BBAF020
:101080009150A1F0FF0FBB1F661F771F881FC2F78B
:101090000EC0BA0F621F731F841F48F4879577959F
:1010A0006795B795F7959E3F08F0B0CF9395880F59
:1010B00008F09927EE0F9795879508950E94CF081D
:1010C00008F481E008950E94230988F09F5798F062
:1010D000B92F9927B751B0F0E1F0660F771F881F3D
:1010E000991F1AF0BA95C9F714C0B13091F00E9457
:1010F0003D09B1E008950C943D09672F782F8827AA
:10110000B85F39F0B93FCCF3869577956795B3957D
:10111000D9F73EF490958095709561957F4F8F4FEC
:101120009F4F0895E89409C097FB3EF490958095F1
:10113000709561957F4F8F4F9F4F9923A9F0F92F9D
:1011400096E9BB279395F695879577956795B7951B
:10115000F111F8CFFAF4BB0F11F460FF1BC06F5F01
:101160007F4F8F4F9F4F16C0882311F096E911C013
:10117000772321F09EE8872F762F05C0662371F034
:1011800096E8862F70E060E02AF09A95660F771F48
:10119000881FDAF7880F9695879597F90895990F24
:1011A0000008550FAA0BE0E8FEEF16161706E80731
:1011B000F907C0F012161306E407F50798F0621B52
:1011C000730B840B950B39F40A2661F0232B242B27
:1011D000252B21F408950A2609F4A140A6958FEF46
:1011E000811D811D089597F99F6780E870E060E098
:1011F00008959FEF80EC089500240A9416161706B0
:1012000018060906089500240A94121613061406F7
:1012100005060895092E0394000C11F4882352F05A
:10122000BB0F40F4BF2B11F460FF04C06F5F7F4F12
:101230008F4F9F4F089557FD9058440F551F59F0F9
:101240005F3F71F04795880F97FB991F61F09F3FB3
:1012500079F087950895121613061406551FF2CFDC
:101260004695F1DF08C0161617061806991FF1CF2C
:1012700086957105610508940895E894BB27662753
:101280007727CB0197F908950E94CF0808F48FEFD4
:1012900008950E945C090C940A090E94FC0838F029
:1012A0000E94030920F0952311F00C94F3080C948C
:1012B000F90811240C943E090E941B0970F3959FB4
:1012C000C1F3950F50E0551F629FF001729FBB273D
:1012D000F00DB11D639FAA27F00DB11DAA1F649FD9
:1012E0006627B00DA11D661F829F2227B00DA11D8C
:1012F000621F739FB00DA11D621F839FA00D611D12
:10130000221F749F3327A00D611D231F849F600D32
:10131000211D822F762F6A2F11249F5750409AF05B
:10132000F1F088234AF0EE0FFF1FBB1F661F771FE7
:10133000881F91505040A9F79E3F510580F00C94B2
:10134000F3080C943E095F3FE4F3983ED4F386958E
:1013500077956795B795F795E7959F5FC1F7FE2B52
:10136000880F911D9695879597F908950E94CF084B
:10137000880B990B0895A1E21A2EAA1BBB1BFD0135
:101380000DC0AA1FBB1FEE1FFF1FA217B307E40764
:10139000F50720F0A21BB30BE40BF50B661F771FBC
:1013A000881F991F1A9469F760957095809590959C
:1013B0009B01AC01BD01CF010895EE0FFF1F059009
:0A13C000F491E02D0994F894FFCF9A
:1013CA0000000000A40104013101F10162014001A1
:1013DA00540154696D656F75742C20636865636B7D
:1013EA00204D43553E485837313120776972696E2E
:1013FA006720616E642070696E2064657369676E28
:10140A006174696F6E73000D0A006E616E00696E19
:10141A0066006F7666005461726520636F6D706C4A
:04142A006574650080
:00000001FF
